:020000008A284C
:10000600831603139818092800000328831233085F
:040016009900080045
:0E001A00831203132E088A002D0882000800AE
:1000280083120313B201300884000008B1003108BC
:10003800003A031929283108B3000320B20A32080C
:0C004800300784000008B1001B280800ED
:100054000D208A110A128000840AAD0A0319AE0A1F
:08006400F003031D2A28080027
:10006C008316031398169030831298008316871703
:10007C00071383128C1E45281A08F0003F2808002D
:0E008C000030831203138C1A0130F0000800BC
:10009A00831203131A08F100981C5528181218160F
:0600AA007108F0000800DF
:1000B00083120313F101F20180307206F0008030E8
:1000C0007002031D65280230710203188928861703
:1000D0000B30FB002630FC005D30FD00FD0B6E2870
:1000E000FC0B6E28FB0B6E280000000086130B3003
:1000F000FB002630FC005D30FD00FD0B7D28FC0B75
:100100007D28FB0B7D2800000000F10A0319F20A8C
:040110005C2808005F
:10011400493083120313A0006E30A1006930A2009D
:100124006330A3006930A4006130A5006C30A600E0
:100134006930A7007A30A8006130A9006430AA00B1
:100144006F30AB00AC018316860183128601333015
:1001540083169900181536202030B0001420023080
:10016400FB000430FC00BA30FD00FD0BB728FC0B8B
:10017400B728FB0BB7280000582046207008013A26
:10018400031DC7284D207008AF00CC288617D1283E
:100194008613D1282F08613A0319C828CA280230C7
:1001A400FB000430FC00BA30FD00FD0BD728FC0B2B
:0C01B400D728FB0BD7280000BF28DF284D
:02400E004A2F37
:00000001FF
