:02000000312E9F
:0E000600213083120313FD00FD0B07280800B4
:100014000F3083120313FC004730FD00FD0B102842
:0A002400FC0B10280000000008008B
:06002E00000000000800C4
:1000340083120317B91B21280313881323280313DE
:1000440088170317391B2928031308132B280313B4
:1000540008170317B91A3128031388123328031316
:1000640088160317391A3928031308123B28031377
:10007400081683165718412883120814432883123C
:1000840008108814172088100317B9194C28031373
:1000940088134E2803138817031739195428031398
:1000A40008135628031308170317B9185C280313F9
:1000B40088125E280313881603173918642803135B
:1000C4000812662803130816831657186C2883121F
:1000D40008146E28831208108814172088108316B9
:0C00E400571C76280A207728032008000B
:1000F000831603135710831203173808B9001A2008
:06010000831657140800ED
:0E0106008316031347088A004608820008008B
:1001140083160313141998281F301105F100710870
:10012400003A031D98280130F0009928F0010800D6
:1001340083160313320883120317B30083160313C1
:10014400330883120317B40083160313340883128D
:100154000317B50083160313350883120317B6007B
:1001640003138C1183169115831203138C19E3283E
:10017400831632083304340435040319E228831245
:1001840003173308340435043604031DD8288316B2
:1001940003135008840003308000840A4E08C6000C
:1001A4004F08C70083208A110A12E3280130831202
:1001B4000317B302031CB402031CB502031CB602EA
:1001C400B6288312031313080317B200031321087C
:1001D400003A031DF02883169116F2288316911213
:1001E40083128C1183161116320883120317B3007D
:1001F40083160313330883120317B40083160313FF
:10020400340883120317B5008316031335088312C9
:100214000317B600031383128C1939298316320885
:1002240033043404350403193829831203173308BB
:10023400340435043604031D2E2983160313500891
:10024400840003308000840A4E08C6004F08C700AB
:1002540083208A110A123929013083120317B30249
:10026400031CB402031CB502031CB6020C2983123E
:0802740003173208F000080036
:10027C0083160313320883120317B2008316031379
:10028C00330883120317B300831603133408831245
:10029C000317B40083160313350883120317B50034
:1002AC0083160313911483160313911C85293208AA
:1002BC0033043404350403198429831203173208D8
:1002CC00330434043504031D7A29831603135008B0
:1002DC00840006308000840A4E08C6004F08C70010
:1002EC0083208A110A128529013083120317B20266
:1002FC00031CB302031CB402031CB50259290800E9
:10030C009829803083120317B200AB29C030B20099
:10031C00AB299430B200AB29D430B200AB29803079
:10032C00B200AB29831203173208013A031987294B
:10033C003208023A03198C293208033A03198F291F
:10034C003208043A0319922995293303F000320834
:10035C00F0077008B2007008B9001A208316571005
:10036C0083120317B50135083407840000080319FC
:10037C00C9293508340784000008B8007820831296
:0E038C000317B50AB929831603135714080086
:10039A0083160313320883120317B4008316031358
:1003AA00330883120317B500831603133408831224
:1003BA000317B60083160313350883120317B70011
:1003CA00B201B3013308123C031DED2932088E3CF9
:1003DA00031CFA298A2070080319F429FA298312BE
:1003EA000317B20A0319B30AE72983120317123053
:1003FA003302031D022A8F303202031C072A7B3084
:10040A00F0003A2A83160313111483160313111CDE
:10041A00392A32083304340435040319382A83127A
:10042A0003173408350436043704031D2F2A8316AC
:10043A0003135008840005308000840A4E08C60061
:10044A004F08C70083208A110A120130831203134E
:10045A00F0003A2A01300317B402031CB502031C48
:0C046A00B602031CB7020A2AF0010800C9
:080476008316031311150800A1
:10047E0083120313F8010830FC00700DF80D740898
:10048E00F80203184C2AF8070310F00DFC0B442A4F
:02049E00080054
:1004A000831203138C1120089300831632088312E1
:1004B0000317B20083160313330883120317B30024
:1004C00083160313340883120317B400831603132F
:1004D000350883120317B50083160313141D9B2AD6
:1004E000320833043404350403199A2A831203179B
:1004F0003208330434043504031D912A8316031390
:100500005008840004308000840A4E08C6004F085A
:10051000C70083208A110A12013083120313F000EE
:10052000EC2A01300317B202031CB302031CB4020D
:10053000031CB5026C2A83160313320883120317B7
:10054000B20083160313330883120317B300831614
:100550000313340883120317B400831603133508FA
:1005600083120317B500031383128C19E32A831631
:1005700032083304340435040319E22A83120317C2
:100580003208330434043504031DD92A83160313B7
:100590005008840004308000840A4E08C6004F08CA
:1005A000C70083208A110A12013083120313F0005E
:1005B000EC2A01300317B202031CB302031CB4027D
:1005C000031CB502B32A83160313111BE92AF00199
:0A05D000EC2A11150230F0000800BB
:1005DA00831603136F08831286000F3086000630D5
:1005EA00FB001330FC00AD30FD00FD0BFA2AFC0BBA
:1005FA00FA2AFB0BFA2A0000000086010630FB00EB
:10060A001330FC00AD30FD00FD0B092BFC0B092B50
:10061A00FB0B092B000000001030FB003930FC00F6
:10062A000D30FD00FD0B172BFC0B172BFB0B172BAB
:06063A00000000000800B2
:10064000CD21831203172E080313A000502283121A
:1006500003172F080313A00050228312031730083A
:0A0660000313A00050223B22080003
:0E066A008316031347088A0046088200080022
:10067800023083120317B2000130B300A030B40077
:100688008621023083120317B2000130B3005830BC
:10069800B40086216F0883120317B800B80CB8138A
:1006A800B80CB813B80CB813B80CB8130F30B80599
:1006B8003030B80778200F306F0583120317B80061
:1006C8003030B80778200B30FB002630FC005D3056
:1006D800FD00FD0B6D2BFC0B6D2BFB0B6D2B000038
:0406E8000000080006
:1006EC00023083120317B2000130B3002530B4007E
:1006FC008621013083120317B9001A200230031728
:10070C00B2000130B3002230B40086210730F00073
:10071C006F0883120317B80070080319992BB80CD3
:10072C00B813FF3E932B0130B8053030B807782052
:10073C000630F0006F0883120317B8007008031915
:10074C00AB2BB80CB813FF3EA52B0130B8053030DD
:10075C00B80778200530F0006F0883120317B80033
:10076C0070080319BD2BB80CB813FF3EB72B013022
:10077C00B8053030B80778206F0883120317B8001B
:10078C00B80CB813B80CB813B80CB813B80CB81321
:10079C000130B8053030B80778206F088312031782
:1007AC00B800B80CB813B80CB813B80CB8130130A7
:1007BC00B8053030B80778206F0883120317B800DB
:1007CC00B80CB813B80CB8130130B8053030B807F2
:1007DC0078206F0883120317B800B80CB8130130D7
:1007EC00B8053030B807782001306F058312031735
:1007FC00B8003030B80778200B30FB002630FC00F6
:10080C005D30FD00FD0B082CFC0B082CFB0B082CA1
:06081C00000000000800CE
:10082200CD21831203172E080313A0005022831236
:1008320003172F080313A00050223E21831203172F
:100842002E0A0313A000502283120313A1019A203F
:100852007008B000B1013B22831203173008F00088
:060862003108F10008005E
:1008680083120317AE01831603136F08093C03189C
:100878005C2C0A30F4006F08F0003F227008031760
:10088800AE007008AE00AE0D2E10AE0D2E10AE0DDF
:100898002E10AE0D2E100A30F400831603136F08C5
:1008A800F0003F227808F00070080317AE04622CAD
:1008B800831603136F0883120317AE002E08F00087
:0208C800080026
:1008CA008316031398186B2C0000652C6F0883128B
:0408DA009900080079
:1008DE008A3083160313C8000030C9000030CA00E6
:1008EE000030CD30CB000130CC000030CD000030D8
:1008FE003E30D1000130D2000030D30000309A30AB
:10090E00D8000030D9002130DA0000305030DB0042
:10091E000230DC002030DD0000303B30D4000230ED
:10092E00D5000030D6000030141394130716871527
:08093E00383083129400080018
:1009460083160313610884000008F0007008E200B3
:10095600610A84000008E300023061078400000891
:10096600E4007008EF003C236208EF00762363087A
:10097600EF003C236308EF0076236408EF003C2376
:100986006408EF0076236208EF003C236208EF005C
:1009960076236208EF0076236208EF00EF0CEF1370
:1009A60076236208EF00EF0CEF13EF0CEF137623BC
:1009B6006208EF00EF0CEF13EF0CEF13EF0CEF13E1
:1009C60076236208EF00EF0CEF13EF0CEF13EF0C3A
:0A09D600EF13EF0CEF137623080077
:1009E000831603138810081008128812081388133E
:1009F00083128810081088130813881208120A201E
:100A00000A200A20881608168814172088100A2041
:100A10008814172088100A208814172088100A20AC
:100A200008128814172088100A20881417208810AC
:100A3000881288178814172088100A20881308162F
:100A400088141720881008128814172088100A208C
:100A500088141720881008168814172088100A2078
:100A60000812881417208810881708178816081687
:0E0A70008814172088100A20831657140800D7
:100A7E00D03083120317AE00AF0111247008831615
:100A8E000313E500D03083120317AE000130AF0020
:100A9E001124700883160313E400D0308312031759
:100AAE00AE000230AF001124700883160313E3006A
:100ABE006508003A031DAA2DE60166080A3C031CD0
:100ACE00AA2D6608F000F1017008103E840000089F
:100ADE00F0007008E2007008EF0076236208EF0065
:100AEE003C236608F000F1017008103E84000030CF
:100AFE000005F000031D842DA72D6608013EF000B1
:100B0E00F1010318F10A1030F00770088400000894
:100B1E00F100700884000008E10071086306031DEF
:100B2E00A72D61086406031DA72D6208F000F00CC6
:100B3E00F0130730F0057008E2007008EF00ED22A8
:080B4E008316E60A642D08007D
:100B5600831603136108EF0034247008B000D03008
:100B6600AE00AF0120236308EF0034247008B00004
:100B7600D030AE000130AF0020236508EF003424EA
:100B86007008B000D030AE000230AF0020236708F6
:100B9600EF0034247008B000D030AE000330AF0050
:100BA60020236908EF0034247008B000D030AE006E
:100BB6000430AF0020236D08EF0034247008B00025
:0C0BC600D030AE000530AF002023080046
:100BD20083160313E301610884000008E20062083F
:100BE200003A0319FF2D6208EF0065248316E30A19
:0E0BF2006308610784000008E200F02D08008F
:100C00008316031398169030831298008316871763
:100C1000071383128C1E0F2E1A08F000092E0800ED
:100C200083120313F1018030003AF000803070022B
:100C3000031D1C2E71081E3C031C242E7108103E3F
:0A0C400084008001F10A132E080061
:100C4A0035238A110A128000840AC60A0319C70AC0
:080C5A00F003031D252E080024
:100C62004827831603138601831286018316071110
:100C720083120711102633308316990018150026A7
:100C820037308316E100E9250230FB000430FC0016
:100C9200BA30FD00FD0B4B2EFC0B4B2EFB0B4B2EEB
:100CA2000000F0240C3083120317B9001A2002301E
:100CB200FB000430FC00BA30FD00FD0B5E2EFC0B85
:100CC2005E2EFB0B5E2E000001300317B9001A20C6
:100CD2001430831693006F240230FB000430FC00B2
:100CE200BA30FD00FD0B732EFC0B732EFB0B732E23
:100CF200000045308316E100E9252D30E100003087
:100D0200E2002230E3000030E4000B30E500003066
:100D1200E6000130E7000030E8000130E900003071
:100D2200EA000130EB000030EC001230ED00003040
:100D3200EE00AB255B30E100E9255D30DE001130CD
:100D4200DF003530E0005E08EF003C235E08EF0074
:100D520076231030FB003930FC000D30FD00FD0B16
:100D6200B02EFC0BB02EFB0BB02E00000000B630F4
:100D7200E100E925DE30E100A3243F250630FB0037
:100D82001330FC00AD30FD00FD0BC52EFC0BC52E53
:0C0D9200FB0BC52E00000000BE2ECE2E74
:100E9000223084004E3083120313F000D4308316C6
:100EA000C6000630C7002526A030840026308312F5
:100EB000F00022308316C6000730C7002526080040
:060DA80062342034003427
:100DAE006234203420342034203420342034203453
:100DBE002034203420342034203420342034203485
:040DCE002034003499
:100DD20049346E3469346334693461346C3469344F
:0C0DE2007A34613464346F340A34003415
:100DEE0041344E3454344534533420344434453431
:100DFE002034533445345434203444344134543440
:060E0E0041340A340034F7
:060E1400643420340034B8
:100E1A00443465347334703475346534733420342F
:100E2A00443445342034533445345434203444341F
:0A0E3A004134543441340A340034CA
:100E440064342034203420342034203420342034BA
:100E540020342034203420342034203420342034EE
:040E64002034003402
:080E68000034003400340034B2
:100E700045346E347634693461346E3464346F349E
:100E8000203461346C34613472346D346134003434
:02400E004A2F37
:00000001FF
