:020000002929AC
:10000600831203137008F100F0010830FC00710838
:10001600F40C03181228FC0B0B28F1010034031012
:100026001728F40C0318F107F10CF00CFC0B14283C
:020036000800C0
:10003800831603139818222800001C2857088312D7
:040048009900080013
:0E004C00831603134C088A004B08820008003C
:10005A00831603135408F000F00CF013F00CF0139D
:10006A00F00CF013F00CF0130A30F40003200F30F8
:0C007A0083165405F1007108F00708001F
:1000860083160313D601540884000008D5005508CA
:10009600003A031959285508D7001C208316D60A9A
:0E00A6005608540784000008D5004A280800B8
:1000B40083160313981690308312980083168717BB
:1000C400071383128C1E69281A08F000632808009D
:1000D40083160313500884000008F1007108D2004D
:1000E400D20CD213D20CD213D20CD213D20CD21300
:1000F4000F30D2053830D400432000305202031CA4
:100104001C2952080A3C031C1C295208F000033025
:10011400F400032070088316D1002630D400432055
:100124005108F000F1017008AD3EF1005008840060
:100134000008F00071088400700880005108013E36
:10014400F000F1010318F10A7008AD3ED300500A23
:1001540084000008D4002D20530884007008800017
:1001640002305107F000F1010318F10A7008AD3EA6
:10017400D3000230500784000008D4002D20530817
:100184008400700880005108F000F1017008AD3E51
:10019400840000088312860020308316D400432094
:1001A4001030FB003930FC000D30FD00FD0BD82869
:1001B400FC0BD828FB0BD828000000005108013E96
:1001C400F000F1010318F10A7008AD3E8400000844
:1001D40083128600A8308316D40043201030FB001D
:1001E4003930FC000D30FD00FD0BF628FC0BF62821
:1001F400FB0BF6280000000002305107F000F1016B
:100204000318F10A7008AD3E8400000883128600CA
:10021400A0308316D40043201030FB003930FC009A
:100224000D30FD00FD0B1429FC0B1429FB0B1429C4
:06023400000000000800BC
:10023A0026208A110A128000840ACB0A0319CC0AE2
:08024A00F003031D1D2908004B
:10025200BA21831603138601831286013330831673
:10026200990018155A2049308316D400432056307D
:10027200D40043200330FB008A30FC005530FD00DF
:10028200FD0B4129FC0B4129FB0B41290000000019
:100292005D30CD001130CE003530CF006030D4005B
:0C02A2004320CD30D0006A2038295629B6
:1003740020308400503083120313F0005C30831665
:10038400CB000130CC001D21A03084000D3083123D
:10039400F000AC308316CB000130CC001D210800E6
:0C02B80046346C34613467347334003415
:1002C40041346C34613472346D34613420346534B7
:1002D4006E3463346F346E34743472346134643421
:0402E400613400344D
:1002E8005234653476346934733461346E3464342A
:1002F8006F34203469346E3464346934633465345B
:020308000034BF
:10030A0049346E3469346334693461346C34693421
:0A031A007A34613464346F34003427
:100324004D34613469346E3420346C346F346F343A
:0403340070340034ED
:1003380045346E347634693461346E3464346F34E1
:10034800203461346C34613472346D346134003477
:100358004D3469346E34753474346F347334003406
:0A03680048346F34723461340034FD
:02400E004A2F37
:00000001FF
