:02000000942941
:10000600831203137008F100F0010830FC00710838
:10001600F40C03181228FC0B0B28F1010034031012
:100026001728F40C0318F107F10CF00CFC0B14283C
:020036000800C0
:0E003800831203134A088A0049088200080058
:10004600831603132508F000F00CF013F00CF013E0
:10005600F00CF013F00CF0130A30F40003200F300C
:0C00660083162505F1007108F007080062
:0C00720083160313250883128600080083
:0E007E000030831203138C1A0130F0000800CA
:10008C00831203131A08F100981C4E281812181624
:06009C007108F0000800ED
:1000A2008316031398185728000051282508831235
:0400B20099000800A9
:1000B600831603132308003A031D9D28A0018030F0
:1000C600003AF00080307002031D6B2820081E3CA9
:1000D600031C9D282008013EF000F1010318F10AD7
:1000E6004B30F007700884000008F10070088400A7
:1000F60000088312EF00710883162106031D982855
:1001060083126F0883162206031D98282008F00024
:10011600F10170084B3E84000008F1007108A5004B
:10012600A50CA5130730A505392003308316A007B3
:06013600A00A6228080087
:10013C0083160313A301A40122080319E42822083F
:10014C00FF3A0319AA28A2033F207008003A031DA6
:10015C00B028AA2846207008EF0083162308200731
:10016C00840070088000A30A24082107840000087A
:10017C0083126F06031DC5288316A40AD028831684
:10018C00A40121088400000883126F06031DD028E7
:10019C008316A40A83162408210784000008003A59
:1001AC00031DE32824082302F000F101031CF103D2
:1001BC007008200784008001E728A228200884000A
:0401CC0080010800A6
:1001D000831203136F0884000008F2007208F00015
:1001E000F00CF013F00CF013F00CF013F00CF01313
:1001F0000F307005F10071088316A1000030710204
:10020000031C462921080A3C031C46292108F0004A
:100210000330F400032070088316A0000030F100C2
:1002200070084B3EF10083126F0884000008F00054
:10023000710884007008800083162008013EF000D9
:10024000F1010318F10A70084B3EA20083126F0AF5
:10025000840000088316A50023202208840070086B
:10026000800002302007F000F1010318F10A700845
:100270004B3EA200023083126F07840000088316F1
:0E028000A500232022088400700880000800DA
:10028E001C208A110A128000840AC90A0319CA0A9C
:08029E00F003031D47290800CD
:1002A600831203136F08F2007208F000F20A700856
:1002B600840000080319602957296F087202F000AC
:0C02C6000130F002F101031CF1030800FC
:1002D20083160313A10183126F088400000883169A
:1002E200A0002008003A031983292008A500512004
:1002F2008316A10A210883126F078400000883165F
:06030200A00072290800B2
:100308008316031398169030831298008316871764
:10031800071383128C1E93291A08F0008D290800F0
:100328001022831603138601831286013330831645
:100338009900181584213C30EF0069213030831270
:10034800EF0069213F207008013A031DB329693085
:100358008316A0003A30A1000430A2009E20693024
:100368008312EF00532100307106031DBD290330AD
:100378007006031DC2296930EF00E8205B200330B6
:10038800FB008A30FC005530FD00FD0BC929FC0B31
:10039800C929FB0BC929000000005D308312EC005D
:1003A8001130ED003530EE002030EF0069216C305F
:0A03B8008312EF00E820A229E029DB
:1004200020308400293083120313F000E630C90025
:080430000130CA004721080059
:1003CC0045346E347634693461346E3464346F344D
:1003DC00203461346C34613472346D3461340034E3
:1003EC004D34613469346E3420346C346F346F3472
:0403FC007034003425
:040400003B34003455
:1004040049346E3469346334693461346C34693426
:0A0414007A34613464346F3400342C
:02400E004A2F37
:00000001FF
