:020000005C2979
:100006008316031398180928000003288312031780
:080016006508031399000800BE
:0E001E008312031364088A006308820008003E
:10002C0083120317E401620884000008E3006308EC
:10003C00003A03192C286308E50003200317E40A8F
:0E004C006408620784000008E3001D28080015
:10005A00831203131A08F100981C3528181218166F
:06006A007108F00008001F
:0E0070000030831203138C1A0130F0000800D8
:10007E00831203136508F2007208F100F20A660893
:10008E00F000E60A700884000008F0007108840091
:10009E00700880007108840000080319572843284F
:0600AE006508F0000800E7
:1000B400831203136508F2007208F000F20A700854
:1000C40084000008031967285E2865087202F0009E
:0C00D4000130F002F101031CF1030800F0
:1000E00083120313E901EA0167080319AF286708BF
:1000F000FF3A03197C28E70338207008003A031DF3
:1001000082287C282D207008E80069086507840093
:1001100070088000E90A6A0866078400000868061B
:10012000031D9428EA0A9C28EA0166088400000856
:100130006806031D9C28EA0A6A086607840000080E
:10014000003A031DAE286A086902F000F101031CA1
:10015000F1037008650784008001B22874286508DF
:060160008400800108008C
:1001660083120313E601E701E801E901EA01EB0165
:10017600EC01ED01EE01EF010317E001E1010313CC
:10018600E601E7018030F000803067067002031D4B
:10019600CE2866080A3C031C3F2920300317E200DC
:1001A60016200313E801E901EA01EB01EC01ED0178
:1001B600EE01EF010317E001E10103136608F00009
:1001C6006708F100F00DF10D70107008DC3E840038
:1001D6008001840A80016608F0006708F100F00DCE
:1001E600F10D70107008C83E840068088000690828
:1001F600840A80006608F0006708F100F00DF10D32
:10020600701070084F3E84006A0880006B08840AEC
:1002160080006608F0006708F100F00DF10D70101F
:1002260070083B3E84006C0880006D08840A8000DC
:100236006608F0006708F100F00DF10D7010700807
:10024600B43E84006E0880006F08840A8000660849
:10025600F0006708F100F00DF10D70107008A03E77
:1002660084000317600880006108840A8000031375
:0A027600E60A0319E70AC52808008C
:100280000F208A110A128000840AE30A0319E40A83
:08029000F003031D40290800E2
:1002980083160313981690308312980083168717D5
:1002A800071383128C1E5B291A08F00055290800D1
:1002B800413083120313A0006C30A1006130A2000A
:1002C8007230A3006D30A4002030A5006930A6006C
:1002D8006E30A7006430A8006530A9007830AA0005
:1002E800AB013B30AC00AD015330AE007430AF0011
:1002F8006130B0007230B1007430B200B3015030D8
:10030800B4007530B5007430B6006130B700B8017C
:10031800B901BA0187018030831687001030831233
:10032800E5003A30E6003F2033308316990018156F
:100338004C210230FB000430FC00BA30FD00FD0BFC
:10034800A329FC0BA329FB0BA32900002E300317BC
:10035800E20016200A30E50003200D300317E500FF
:10036800032038207008013A031DE1291030E50008
:100378002C30E6005130E70070201030E5005A209C
:100388008030F200803071067202031DCD2970089A
:10039800003C0318DD2910300317E2001620103046
:1003A8000313E500B3201030E5003930E6003F20A4
:1003B800E12934300317E20016200330FB008A30AD
:1003C800FC005530FD00FD0BE729FC0BE729FB0B72
:0A03D800E72900000000B529F02914
:02400E004A2F37
:00000001FF
