:02000000BA281C
:0E0006008312031323088A00220882000800D8
:0E0014000030831203138C1A0130F000080034
:10002200831203131A08F100981C192818121816C3
:060032007108F000080057
:1000380003208A110A128000840AA20A0319A30A5B
:08004800F003031D1C28080051
:10005000831203134508F2007208F000F20A7008D8
:1000600084000008031935282C2845087202F00086
:0C0070000130F002F101031CF103080054
:10007C0083120313450884000008F2007208F00094
:10008C00F00CF013F00CF013F00CF0130F307005B3
:10009C00F1007108F5000A30710203185828750830
:1000AC00F3005A28FF30F3007308F5007308003C86
:1000BC0003187628F40103307402031876287408A8
:1000CC00F000F1017008243EF1007408450784002B
:1000DC000008F0007108840070088000F40A6128A0
:0200EC0008000A
:1000EE0083120313C901CA0147080319B62847082A
:1000FE00FF3A03198328C7030A207008003A031D2C
:10010E008928832811207008C800490845078400F3
:10011E0070088000C90A4A0846078400000848068D
:10012E00031D9B28CA0AA328CA014608840000089A
:10013E004806031DA328CA0A4A0846078400000879
:10014E00003A031DB5284A084902F000F101031CCC
:10015E00F1037008450784008001B9287B28450803
:06016E008400800108007E
:100174003B3083120313A000A101831686010A20D9
:100184007008013A031DCD284230C5002030C60056
:100194000430C70077204230C500282000307106A3
:1001A400031DD62803307006031DDB284230C5002A
:1001B4003E200330FB008A30FC005530FD00FD0B6F
:1001C400E128FC0BE128FB0BE128000000000130D2
:0A01D400C2000130A400C128EE288B
:02400E004A2F37
:00000001FF
