:040000008A15B8287D
:100006000F3083120313FC004730FD00FD0B092857
:0A001600FC0B0928000000000800A0
:0E002000213083120313FD00FD0B142808008D
:06002E00000000000800C4
:0E0034008316031362088A0061088200080028
:100042008316031314192F281F301105F1007108AC
:10005200003A031D2F280130F0003028F00108007B
:1000620083120317E21B3828031388133A28031359
:1000720088170317621B402803130813422803132F
:1000820008170317E21A4828031388124A28031391
:1000920088160317621A50280313081252280313F2
:1000A20008166F18562808145728081088141720A5
:1000B20088100317E21960280313881362280313B8
:1000C2008817031762196828031308136A28031391
:1000D20008170317E21870280313881272280313F3
:1000E2008816031762187828031308127A28031354
:1000F20008166F187E2808147F2808108814172005
:0E01020088106F1C8628032087281020080014
:10011000831603135D0883120317DD008316031390
:100120005E0883120317DE00831603135F08831231
:100130000317DF0083160313600883120317E00020
:1001400003138C1183169115831203138C19D52870
:1001500083165D085E045F0460040319D4288312CB
:1001600003175D085E045F046004031DCA28460887
:10017000840003308000840A440883160313E100DE
:1001800083120317450883160313E2001A208A110D
:100190000A12D528013083120317DD02031CDE0288
:1001A000031CDF02031CE002A428831203131308BC
:1001B0000317DC0003132108003A031DE22883160D
:1001C0009116E4288316911283128C11831611164E
:1001D0005D0883120317DD00831603135E08831284
:1001E0000317DE00831603135F0883120317DF0073
:1001F00083160313600883120317E00003138312AE
:100200008C192F2983165D085E045F0460040319AE
:100210002E29831203175D085E045F046004031D2A
:1002200024294608840003308000840A4408831689
:100230000313E10083120317450883160313E2003A
:100240001A208A110A122F29013083120317DD02A6
:10025000031CDE02031CDF02031CE002FE288312E3
:0802600003175C08F000080020
:10026800831203138C112008930083165D088312F0
:100278000317DC00831603135E0883120317DD00DF
:10028800831603135F0883120317DE008316031314
:10029800600883120317DF0083160313141D8329D4
:1002A8005D085E045F046004031982298312031742
:1002B8005C085D045E045F04031D79294608840018
:1002C80004308000840A440883160313E100831273
:1002D8000317450883160313E2001A208A110A122D
:1002E800013083120313F000D82901300317DC0210
:1002F800031CDD02031CDE02031CDF0250298316E7
:1003080003135D0883120317DC00831603135E08CA
:1003180083120317DD00831603135F088312031784
:10032800DE0083160313600883120317DF0003132C
:1003380083128C19CF2983165D085E045F0460045C
:100348000319CE29831203175C085D045E045F0459
:10035800031DC5294608840004308000840A440827
:1003680083160313E100831203174508831603134A
:10037800E2001A208A110A12013083120313F000D6
:10038800D82901300317DC02031CDD02031CDE023E
:10039800031CDF029B2983160313111BD529F001C7
:0A03A800D82911150230F0000800FA
:1003B200831603135D0883120317DC0083160313ED
:1003C2005E0883120317DD00831603135F0883128E
:1003D2000317DE0083160313600883120317DF007E
:1003E20083160313911483160313911C242A5D08A8
:1003F2005E045F0460040319232A831203175C0856
:100402005D045E045F04031D192A46088400063059
:100412008000840A440883160313E1008312031741
:10042200450883160313E2001A208A110A12242AAD
:10043200013083120317DC02031CDD02031CDE02FF
:08044200031CDF02F42908008D
:10044A00831203137008F100F0010830FC007108F0
:10045A00F40C0318342AFC0B2D2AF1010034031082
:10046A00392AF40C0318F107F10CF00CFC0B362AAC
:02047A00080078
:10047C00831603135D0883120317DE008316031320
:10048C005E0883120317DF00831603135F088312C1
:10049C000317E00083160313600883120317E100AF
:1004AC00DC01DD015D08123C031D5E2A5C088E3CFC
:1004BC00031C6B2A212070080319652A6B2A8312EE
:1004CC000317DC0A0319DD0A582A831203171230AA
:1004DC005D02031D732A8F305C02031C782A7B306B
:1004EC00F000AF2A83160313111483160313111C87
:1004FC00AE2A5D085E045F0460040319AD2A831202
:10050C0003175E085F0460046104031DA42A4608F7
:10051C00840005308000840A440883160313E1002C
:10052C0083120317450883160313E2001A208A115D
:10053C000A12013083120313F000AF2A01300317A3
:10054C00DE02031CDF02031CE002031CE1027B2A17
:04055C00F0010800A2
:10056000831203136F1003175C08E20031206F142D
:02057000080081
:080572008316031311150800A4
:10057A0083120313F8010830FC00700DF80D74089B
:10058A00F8020318CA2AF8070310F00DFC0BC22A56
:02059A00080057
:10059C003E228312031758080313A0003421831240
:1005AC00031759080313A0003421831203175A08A8
:0A05BC000313A0003421B922080047
:0E05C6008316031362088A0061088200080091
:1005D40083120317580886000F3086000630FB008C
:1005E4001330FC00AD30FD00FD0BF62AFC0BF62A9F
:1005F400FB0BF62A0000000086010630FB001330D6
:10060400FC00AD30FD00FD0B052BFC0B052BFB0B9B
:10061400052B000000001030FB003930FC000D30C9
:10062400FD00FD0B132BFC0B132BFB0B132B0000FA
:0406340000000800BA
:100638002E2B803083120317D800412BC030D800EE
:10064800412B9430D800412BD430D800412B803036
:10065800D800412B831203175808013A03191D2BA0
:100668005808023A0319222B5808033A0319252B74
:100678005808043A0319282B2B2B5903F000580863
:10068800F0077008D8007008E20031206F100317D7
:10069800DB015B085A078400000803195C2B5B0820
:1006A8005A0784000008DC00B0220317DB0A4D2B30
:0606B80003136F1408009B
:1006BE0083120317D9015808093C0318832B0A30FB
:1006CE00F4005808F000BD2270080317D900700816
:1006DE00D900D90D5910D90D5910D90D5910D90D60
:1006EE0059100A30F4005808F000BD227808F000C6
:1006FE0070080317D904852B5808D9005908F00043
:02070E000800E1
:100710003E228312031758080313A00034218312CA
:10072000031759080313A0003421D921831203179A
:10073000580A0313A000342183120313A101882057
:100740007008DA00DB01B922831203175A08F0009F
:060750005B08F100080047
:10075600831603139818B12B0000AB2B83120317D3
:08076600580803139900080074
:10076E00831203175808F000F00CF013F00CF0137E
:10077E00F00CF013F00CF0130A30F40025220F30B9
:0C078E0003175805F1007108F00708007F
:10079A00D03083120317D800D90188237008CD00FE
:1007AA00D030D8000130D90088237008CC00D0306E
:1007BA00D8000230D90088237008CB004D08003ACF
:1007CA00031D952D0230D8000130D9004730DA00D8
:1007DA001C230317CE014E080A3C031C952D023038
:1007EA00D8000130D9004430DA001C233030031716
:1007FA004E07DC00B02203174E08F000F101700822
:10080A00203E84000008F1000730F0007108DC0087
:10081A0070080319142CDC0CDC13FF3E0E2C01307B
:10082A00DC053030DC07B02203174E08F000F10176
:10083A007008203E84000008F1000630F0007108BC
:10084A00DC00700803192D2CDC0CDC13FF3E272C6E
:10085A000130DC053030DC07B02203174E08F00007
:10086A00F1017008203E84000008F1000530F00014
:10087A007108DC0070080319462CDC0CDC13FF3EFF
:10088A00402C0130DC053030DC07B02203174E085B
:10089A00F000F1017008203E84000008F1007108A0
:1008AA00DC00DC0CDC13DC0CDC13DC0CDC13DC0CF5
:1008BA00DC130130DC053030DC07B02203174E08A8
:1008CA00F000F1017008203E84000008F100710870
:1008DA00DC00DC0CDC13DC0CDC13DC0CDC1301307C
:1008EA00DC053030DC07B02203174E08F000F101B6
:1008FA007008203E84000008F1007108DC00DC0C5E
:10090A00DC13DC0CDC130130DC053030DC07B022F0
:10091A0003174E08F000F1017008203E8400000819
:10092A00F1007108DC00DC0CDC130130DC0530302E
:10093A00DC07B02203174E08F000F1017008203ED0
:10094A00840001300005DC003030DC07B0220B30B7
:10095A00FB002630FC005D30FD00FD0BB22CFC0BC9
:10096A00B22CFB0BB22C0000000003174E08F0005B
:10097A00F1017008203E840000300005F000031DDC
:10098A00C72C932D0230D8000130D9003A30DA0052
:10099A001C23303003174E07DC00B0220B30FB005B
:1009AA002630FC005D30FD00FD0BD92CFC0BD92C48
:1009BA00FB0BD92C0000000003174E08013EF00083
:1009CA00F1010318F10A2030F007700884000008CA
:1009DA0083160313EF0070088400000883120317BC
:1009EA00CA000230D8000130D900A430DA001C2332
:1009FA0083166F0883120317D800B7230A30F4004E
:100A0A00BD22303070070317DC00B02203174A08F2
:100A1A00D800B7230A30F400BD227808F00030303D
:100A2A0070070317DC00B02203174A08D800B7235F
:100A3A000A30F400BD22303070070317DC00B02200
:100A4A0003174A08D800B7230A30F400BD227808F1
:100A5A00F000303070070317DC00B0222C30031787
:100A6A00DC00B02203174B08D800B7230A30F40081
:100A7A00BD22303070070317DC00B02203174B0881
:100A8A00D800B7230A30F400BD227808F0003030CD
:100A9A0070070317DC00B02203174C08D800B723ED
:100AAA000A30F400BD22303070070317DC00B02290
:100ABA0003174C08D800B7230A30F400BD2278087F
:100ACA00F000303070070317DC00B0220B30FB0057
:100ADA002630FC005D30FD00FD0B712DFC0B712DE5
:100AEA00FB0B712D0000000083166F088312031799
:100AFA004B06031D932D4A084C06031D932D4E08E1
:100B0A00F000F1017008203E84000008F10071082D
:100B1A00D800D80CD8130730D805EA22CE0AF02B11
:020B2A000800C1
:100B2C00023083120317D8000130D9005D30DA008F
:100B3C001C2302300317D8000130D9003730DA00FB
:100B4C001C2383166F0883120317DC00DC0CDC13E8
:100B5C00DC0CDC13DC0CDC13DC0CDC130F30DC05E4
:100B6C003030DC07B0220F3083166F058312031769
:100B7C00DC003030DC07B0220B30FB002630FC00F0
:100B8C005D30FD00FD0BC82DFC0BC82DFB0BC82DDB
:060B9C000000000008004B
:100BA200831603138810081008128812081388137A
:100BB2008312881008108813081388120812032061
:100BC2000320032088160816881417208810032093
:100BD20088141720881003208814172088100320F7
:100BE20008128814172088100320881417208810F0
:100BF2008812881788141720881003208813081673
:100C020088141720881008128814172088100320CF
:100C120088141720881008168814172088100320BB
:100C220008128814172088108817081788160816C3
:0C0C320088141720881003206F1408009D
:100C3E00831203174A08D8005F237008DA00D030F9
:100C4E00D800D901CE22831203174C08D8005F2397
:100C5E007008DA00D030D8000130D900CE228312CD
:100C6E0003174E08D8005F237008DA00D030D80082
:100C7E000230D900CE22831203175008D8005F230A
:100C8E007008DA00D030D8000330D900CE2283129B
:100C9E0003175208D8005F237008DA00D030D8004E
:100CAE000430D900CE22831203175608D8005F23D2
:100CBE007008DA00D030D8000530D900CE220800F6
:100CCE00213083120317C1000030C2000030C30070
:100CDE0000303E3083160313E9000230EA00003084
:100CEE00EB000030D930E6000130E7000030E800BC
:100CFE0000308830E3000030E4002130E5000030A1
:100D0E00343083120317BE000130BF002030C00004
:100D1E000030B93083160313EC000230ED000030C2
:100D2E00EE00003014139413071687153830831213
:040D3E009400080015
:100D4200831603136F0884000008F2007208F00093
:100D5200F00CF013F00CF013F00CF013F00CF01395
:100D62000F307005F100710883120317CB000030B9
:100D72007102031C842F4B080A3C031C842F4B086E
:100D8200F0000330F400252270080317CA00003077
:100D9200F1007008203EF100831603136F088400EF
:100DA2000008F000710884007008800083120317A5
:100DB2004A08013EF000F1010318F10A7008203ED2
:100DC200F100831603136F0A84000008F000710813
:100DD2008400700880000230831203174A07F00073
:100DE200F1010318F10A7008203EF1000230831667
:100DF20003136F0784000008F00071088400700874
:100E02008000023083120317D8000130D900A030CD
:100E1200DA001C2383166F0884000008831203176C
:100E2200D800B7230A30F400BD2230307007031710
:100E3200DC00B02283166F088400000883120317B7
:100E4200D800B7230A30F400BD227808F000303011
:100E520070070317DC00B02283166F0A84000008B3
:100E620083120317D800B7230A30F400BD223030B2
:100E720070070317DC00B02283166F0A8400000893
:100E820083120317D800B7230A30F400BD22780872
:100E9200F000303070070317DC00B02202308316F6
:100EA2006F078400000883120317D800B7230A30A3
:100EB200F400BD22303070070317DC00B02202308C
:100EC20083166F078400000883120317D800B72324
:100ED2000A30F400BD227808F000303070070317A2
:100EE200DC00B0227C300317DC00B0221530FB009E
:100EF2004B30FC00BE30FD00FD0B7D2FFC0B7D2F27
:100F0200FB0B7D2F000003130F3086000630FB0021
:100F12001330FC00AD30FD00FD0B8D2FFC0B8D2F2F
:100F2200FB0B8D2F0000000086010630FB00133002
:100F3200FC00AD30FD00FD0B9C2FFC0B9C2FFB0B2E
:080F42009C2F000000000800D4
:100F4A0083120317CB01831603136F08840000086A
:100F5A0083120317CA004A08003A0319C32F4A0822
:100F6A00D800AB230317CB0A4B08831603136F076A
:0E0F7A008400000883120317CA00B02F08007D
:100F880083160313981690308312980083168717D8
:100F9800071383128C1ED32F1A08F000CD2F0800D8
:100FA80083120313F1018030003AF00080307002A0
:100FB800031DE02F71081E3C031CE82F7108203E1A
:0A0FC80084008001F10AD72F080011
:100FD200E3228A110A128000840AE10A0319E20A52
:080FE200F003031DE92F0800D4
:10100000023083120317D8000130D9002530DA00EE
:101010008A111C238A1501300317E2008A1131203E
:101020008A1502300317D8000130D9002230DA00C7
:101030008A111C238A150730F00083166F0883126B
:101040000317DC00700803192928DC0CDC13FF3EB1
:1010500023280130DC053030DC078A11B0228A15E4
:101060000630F00083166F0883120317DC00700847
:1010700003193E28DC0CDC13FF3E38280130DC0568
:101080003030DC078A11B0228A150530F000831653
:101090006F0883120317DC00700803195328DC0C57
:1010A000DC13FF3E4D280130DC053030DC078A11AF
:1010B000B0228A1583166F0883120317DC00DC0C3C
:1010C000DC13DC0CDC13DC0CDC13DC0CDC1301307B
:1010D000DC053030DC078A11B0228A1583166F08D0
:1010E00083120317DC00DC0CDC13DC0CDC13DC0CDF
:1010F000DC130130DC053030DC078A11B0228A15A0
:1011000083166F0883120317DC00DC0CDC13DC0C85
:10111000DC130130DC053030DC078A11B0228A157F
:1011200083166F0883120317DC00DC0CDC1301301C
:10113000DC053030DC078A11B0228A1501308316B5
:101140006F0583120317DC003030DC078A11B022F0
:101150008A150B30FB002630FC005D30FD00FD0BD6
:10116000AF28FC0BAF28FB0BAF28000000000800E5
:101170001E2283160313860183128601831607112C
:10118000831207118A11D4278A15333083169900E8
:1011900018158A11C4278A15CF308316EF008A11DB
:1011A000A5278A150230FB000430FC00BA30FD0090
:1011B000FD0BD828FC0BD828FB0BD82800008A117F
:1011C000D1258A150C300317E2008A1131208A15C7
:1011D0000230FB000430FC00BA30FD00FD0BEE28AD
:1011E000FC0BEE28FB0BEE28000001300317E20099
:1011F0008A1131208A151430831693008A116726CC
:101200008A150230FB000430FC00BA30FD00FD0BF3
:101210000729FC0B0729FB0B07290000BC308316AC
:10122000EF008A11A5278A152D30CA000030CB00A7
:101230002230CC000030CD000B30CE000030CF008B
:101240000130D0000030D1000130D2000030D30096
:101250000130D4000030D5001230D6000030D70065
:101260008A111F268A15A730EF008A11A5278A1533
:101270005D30C7001130C8003530C9001030FB00A8
:101280003930FC000D30FD00FD0B4429FC0B4429D6
:10129000FB0B442900000000103083160313EF00FD
:1012A0008A11A5278A15473083160313EF008A1188
:1012B000A1268A150317470883160313EF000020A1
:1012C0000317470883160313EF008A1196258A1522
:1012D0008A11CD238A150630FB001330FC00AD3097
:1012E000FD00FD0B7129FC0B7129FB0B712900001E
:0612F000000068297A29C4
:10143C00223084004D3083120313F0008030831669
:10144C00E1000930E2008A11E9278A15A0308400F6
:10145C0041308312F000CD308316E1000930E200F8
:10146C008A11E9278A1510308317840010308312F3
:10147C00F0000E308316E1000A30E2008A11E927F1
:06148C008A15831308001D
:06130000623420340034C9
:1013060062342034203420342034203420342034F5
:101316002034203420342034203420342034203427
:04132600203400343B
:06132A006434203400349D
:1013300061346C3472346D34203461346334743409
:0413400076340034CB
:0613440043344134003483
:10134A0045347334743461346D346F3473342034F7
:10135A0065346E3420343034203473346534673461
:0C136A0075346E3464346F347334003416
:101376006434203420342034203420342034203483
:1013860020342034203420342034203420342034B7
:0413960020340034CB
:08139A00533441345F34003488
:0613A20074343A340034FB
:1013A800443465347334703475346534733420349C
:1013B800443445342034533445345434203444348C
:0A13C8004134543441340A34003437
:1013D20041344E3454344534533420344434453447
:1013E2002034533445345434203444344134543456
:0613F20041340A3400340E
:1013F80049346E3469346334693461346C34693423
:0C1408007A34613464346F340A340034E8
:08141400003400340034003400
:10141C0045346E347634693461346E3464346F34EC
:10142C00203461346C34613472346D346134003482
:02400E004A2F37
:00000001FF
