:02000000CC280A
:0E0006000030831203138C1A0130F000080042
:10001400831203131A08F100981C122818121816D8
:060024007108F000080065
:0E002A008312031338088A003708820008008A
:10003800831603139818222800001C2883123F08EF
:040048009900080013
:10004C008316031398169030831298008316871723
:10005C00071383128C1E35281A08F0002F2808006D
:10006C0083120313BB01390884000008BA003A0854
:10007C00003A03194B283A08BF001C20BB0A3B0866
:0C008C00390784000008BA003D28080075
:10009800831203133908F2007208F100F20A3A08D1
:1000A800F000BA0A700884000008F00071088400A3
:1000B800700880007108840000080319642850281B
:0600C8003908F0000800F9
:1000CE00831203133908F2007208F000F20A700866
:1000DE0084000008031974286B2839087202F00096
:0C00EE000130F002F101031CF1030800D6
:1000FA0083120313BD01BE013B080319BC283B0848
:10010A00FF3A03198928BB0303207008003A031D2C
:10011A008F2889280A207008BC003D083907840006
:10012A0070088000BD0A3E083A07840000083C06B1
:10013A00031DA128BE0AA928BE013A0884000008A6
:10014A003C06031DA928BE0A3E083A078400000897
:10015A00003A031DBB283E083D02F000F101031CD2
:10016A00F1037008390784008001BF288128390803
:06017A0084008001080072
:1001800015208A110A128000840AB70A0319B80AD6
:08019000F003031DC028080064
:100198002D3083120313A0005030A1002D30A2008F
:1001A800A301A4015030A5007530A6007430A70043
:1001B8006130A800A9012D30AA005030AB002D30C5
:1001C800AC00AD01AE015330AF007430B000613007
:1001D800B1007230B2007430B300B4013B30B500E6
:1001E800B601831686018312061086100611861141
:1001F8000612861206130630FB001330FC00AD30E1
:10020800FD00FD0B0529FC0B0529FB0B052900004A
:10021800000006178701803083168700A0308312FC
:10022800B9002E30BA004C203330831699001815C7
:1002380026200230FB000430FC00BA30FD00FD0B24
:100248002329FC0B2329FB0B232900002F30B9009D
:1002580036200A30BF001C200D30BF001C200320B0
:100268007008013A031D6229A030B9003530BA0080
:100278005130BB007D20A030B90067208030F200EB
:10028800803071067202031D4B297008003C031868
:100298005F29A030B90036202A30B9003620A030B6
:1002A800B90036202030B9003620A030B9002430FB
:1002B800BA004C2062292530B90036200330FB00F3
:1002C8008A30FC005530FD00FD0B6829FC0B6829BD
:0C02D800FB0B682900000000332971298D
:02400E004A2F37
:00000001FF
