:02000000A6292F
:10000600831203137008F100F0010830FC00710838
:10001600F40C03181228FC0B0B28F1010034031012
:100026001728F40C0318F107F10CF00CFC0B14283C
:020036000800C0
:10003800831203136208F000F00CF013F00CF013B5
:10004800F00CF013F00CF0130A30F40003200F301A
:0A0058006205F1007108F0070800CE
:0E006200831203133A088A003908820008004E
:100070008316031398183E2800003828831262085C
:0400800099000800DB
:10008400831203131A08F100981C4A281812181630
:060094007108F0000800F5
:0E009A000030831203138C1A0130F0000800AE
:1000A80083160313981690308312980083168717C7
:1000B800071383128C1E63281A08F0005D280800B5
:1000C800831203135C08F2007208F000F20A700849
:1000D800840000080319712868285C087202F0007F
:0C00E8000130F002F101031CF1030800DC
:1000F40083120313E001E1015E080319B9285E08C5
:10010400FF3A03198628DE034D207008003A031DC8
:100114008C28862842207008DF0060085C07840071
:1001240070088000E00A61085D07840000085F062B
:10013400031D9E28E10AA628E1015D088400000849
:100144005F06031DA628E10A61085D078400000814
:10015400003A031DB82861086002F000F101031C95
:10016400F10370085C0784008001BC287E285C08C9
:0601740084008001080078
:10017A00831203135C0884000008F2007208F0007E
:10018A00F00CF013F00CF013F00CF013F00CF01369
:10019A000F307005F1007108DE0000307102031C97
:1001AA0083295E080A3C031C83295E08F000033099
:1001BA00F40003207008DD000030F10070083B3EB7
:1001CA00F1005C0884000008F000710884007008DF
:1001DA0080005D08013EF000F1010318F10A700881
:1001EA003B3EDF005C0A84000008E2001C205F0836
:1001FA0084007008800002305D07F000F1010318E6
:10020A00F10A70083B3EDF0002305C0784000008F8
:10021A00E2001C205F08840070088000FF3086001E
:10022A00C330FC00CD30FD00FD0B1929FC0B192948
:10023A008601C330FC00CD30FD00FD0B2229FC0BEA
:10024A002229FF308600C330FC00CD30FD00FD0BB3
:10025A002C29FC0B2C298601C330FC00CD30FD0073
:10026A00FD0B3529FC0B3529FF308600C330FC0015
:10027A00CD30FD00FD0B3F29FC0B3F298601C33021
:10028A00FC00CD30FD00FD0B4829FC0B48295C0819
:10029A008400000886001030FB003930FC000D3065
:1002AA00FD00FD0B5629FC0B5629FB0B56290000B5
:1002BA0000005C0A8400000886001030FB00393018
:1002CA00FC000D30FD00FD0B6829FC0B6829FB0BB7
:1002DA0068290000000002305C07840000088600DC
:1002EA001030FB003930FC000D30FD00FD0B7B297E
:0E02FA00FC0B7B29FB0B7B2900000000080099
:1003080031208A110A128000840AB90A0319BA0A2C
:08031800F003031D8429080015
:1003200083120313DE015C0884000008DD005D0811
:10033000003A0319A5295D08E2003820DE0A5E08AC
:0C0340005C0784000008DD00972908001D
:10034C004D3083120313A0006130A1006930A2006C
:10035C006E30A3002030A4006C30A5006F30A600D6
:10036C006F30A7007030A800A9013B30AA00AB0188
:10037C004930AC006E30AD006930AE006330AF0078
:10038C006930B0006130B1006C30B2006930B3003C
:10039C007A30B4006130B5006430B6006F30B7000D
:1003AC00B8018316860183128601333083169900B7
:1003BC00181554202C30DC0090212030DC009021CA
:1003CC004D207008013A031DF2295930DC002A3007
:1003DC00DD000430DE007A205930DC00642000306F
:1003EC007106031DFB2903307006031D002A5930CA
:1003FC00DC00BD200330FB008A30FC005530FD00D2
:10040C00FD0B062AFC0B062AFB0B062A000000003B
:04041C00E3290F2A97
:02400E004A2F37
:00000001FF
